{
  "_format": "hh-sol-artifact-1",
  "contractName": "BoredApeAirdrop",
  "sourceName": "contracts/BoredApeAirdrop..sol",
  "abi": [
    {
      "inputs": [
        {
          "internalType": "address",
          "name": "_token",
          "type": "address"
        },
        {
          "internalType": "bytes32",
          "name": "_merkleRoot",
          "type": "bytes32"
        }
      ],
      "stateMutability": "nonpayable",
      "type": "constructor"
    },
    {
      "inputs": [
        {
          "internalType": "address",
          "name": "owner",
          "type": "address"
        }
      ],
      "name": "OwnableInvalidOwner",
      "type": "error"
    },
    {
      "inputs": [
        {
          "internalType": "address",
          "name": "account",
          "type": "address"
        }
      ],
      "name": "OwnableUnauthorizedAccount",
      "type": "error"
    },
    {
      "anonymous": false,
      "inputs": [
        {
          "indexed": true,
          "internalType": "address",
          "name": "claimant",
          "type": "address"
        },
        {
          "indexed": false,
          "internalType": "uint256",
          "name": "amount",
          "type": "uint256"
        }
      ],
      "name": "AirdropClaimed",
      "type": "event"
    },
    {
      "anonymous": false,
      "inputs": [
        {
          "indexed": true,
          "internalType": "address",
          "name": "previousOwner",
          "type": "address"
        },
        {
          "indexed": true,
          "internalType": "address",
          "name": "newOwner",
          "type": "address"
        }
      ],
      "name": "OwnershipTransferred",
      "type": "event"
    },
    {
      "inputs": [],
      "name": "BAYC_ADDRESS",
      "outputs": [
        {
          "internalType": "address",
          "name": "",
          "type": "address"
        }
      ],
      "stateMutability": "view",
      "type": "function"
    },
    {
      "inputs": [
        {
          "internalType": "bytes32[]",
          "name": "proof",
          "type": "bytes32[]"
        },
        {
          "internalType": "uint256",
          "name": "amount",
          "type": "uint256"
        }
      ],
      "name": "ClaimAirdrop",
      "outputs": [],
      "stateMutability": "nonpayable",
      "type": "function"
    },
    {
      "inputs": [
        {
          "internalType": "address",
          "name": "",
          "type": "address"
        }
      ],
      "name": "hasClaimed",
      "outputs": [
        {
          "internalType": "bool",
          "name": "",
          "type": "bool"
        }
      ],
      "stateMutability": "view",
      "type": "function"
    },
    {
      "inputs": [],
      "name": "merkleRoot",
      "outputs": [
        {
          "internalType": "bytes32",
          "name": "",
          "type": "bytes32"
        }
      ],
      "stateMutability": "view",
      "type": "function"
    },
    {
      "inputs": [],
      "name": "owner",
      "outputs": [
        {
          "internalType": "address",
          "name": "",
          "type": "address"
        }
      ],
      "stateMutability": "view",
      "type": "function"
    },
    {
      "inputs": [],
      "name": "renounceOwnership",
      "outputs": [],
      "stateMutability": "nonpayable",
      "type": "function"
    },
    {
      "inputs": [],
      "name": "token",
      "outputs": [
        {
          "internalType": "contract IERC20",
          "name": "",
          "type": "address"
        }
      ],
      "stateMutability": "view",
      "type": "function"
    },
    {
      "inputs": [
        {
          "internalType": "address",
          "name": "newOwner",
          "type": "address"
        }
      ],
      "name": "transferOwnership",
      "outputs": [],
      "stateMutability": "nonpayable",
      "type": "function"
    },
    {
      "inputs": [],
      "name": "withdrawRemainingTokens",
      "outputs": [],
      "stateMutability": "nonpayable",
      "type": "function"
    }
  ],
  "bytecode": "0x60806040523480156200001157600080fd5b506040516200147438038062001474833981810160405281019062000037919062000278565b33600073ffffffffffffffffffffffffffffffffffffffff168173ffffffffffffffffffffffffffffffffffffffff1603620000ad5760006040517f1e4fbdf7000000000000000000000000000000000000000000000000000000008152600401620000a49190620002d0565b60405180910390fd5b620000be816200010f60201b60201c565b5081600260006101000a81548173ffffffffffffffffffffffffffffffffffffffff021916908373ffffffffffffffffffffffffffffffffffffffff160217905550806001819055505050620002ed565b60008060009054906101000a900473ffffffffffffffffffffffffffffffffffffffff169050816000806101000a81548173ffffffffffffffffffffffffffffffffffffffff021916908373ffffffffffffffffffffffffffffffffffffffff1602179055508173ffffffffffffffffffffffffffffffffffffffff168173ffffffffffffffffffffffffffffffffffffffff167f8be0079c531659141344cd1fd0a4f28419497f9722a3daafe3b4186f6b6457e060405160405180910390a35050565b600080fd5b600073ffffffffffffffffffffffffffffffffffffffff82169050919050565b60006200020582620001d8565b9050919050565b6200021781620001f8565b81146200022357600080fd5b50565b60008151905062000237816200020c565b92915050565b6000819050919050565b62000252816200023d565b81146200025e57600080fd5b50565b600081519050620002728162000247565b92915050565b60008060408385031215620002925762000291620001d3565b5b6000620002a28582860162000226565b9250506020620002b58582860162000261565b9150509250929050565b620002ca81620001f8565b82525050565b6000602082019050620002e76000830184620002bf565b92915050565b61117780620002fd6000396000f3fe608060405234801561001057600080fd5b50600436106100935760003560e01c80638da5cb5b116100665780638da5cb5b146100fa578063bee991b414610118578063f2fde38b14610136578063fa27eeb514610152578063fc0c546a1461016e57610093565b80632eb4a7ab14610098578063715018a6146100b657806373b2e80e146100c05780638afbf669146100f0575b600080fd5b6100a061018c565b6040516100ad9190610a10565b60405180910390f35b6100be610192565b005b6100da60048036038101906100d59190610a9d565b6101a6565b6040516100e79190610ae5565b60405180910390f35b6100f86101c6565b005b610102610357565b60405161010f9190610b0f565b60405180910390f35b610120610380565b60405161012d9190610b0f565b60405180910390f35b610150600480360381019061014b9190610a9d565b610398565b005b61016c60048036038101906101679190610ce5565b61041e565b005b6101766107d5565b6040516101839190610da0565b60405180910390f35b60015481565b61019a6107fb565b6101a46000610882565b565b60036020528060005260406000206000915054906101000a900460ff1681565b6101ce6107fb565b6000600260009054906101000a900473ffffffffffffffffffffffffffffffffffffffff1673ffffffffffffffffffffffffffffffffffffffff166370a08231306040518263ffffffff1660e01b815260040161022b9190610b0f565b602060405180830381865afa158015610248573d6000803e3d6000fd5b505050506040513d601f19601f8201168201806040525081019061026c9190610dd0565b9050600260009054906101000a900473ffffffffffffffffffffffffffffffffffffffff1673ffffffffffffffffffffffffffffffffffffffff1663a9059cbb6102b4610357565b836040518363ffffffff1660e01b81526004016102d2929190610e0c565b6020604051808303816000875af11580156102f1573d6000803e3d6000fd5b505050506040513d601f19601f820116820180604052508101906103159190610e61565b610354576040517f08c379a000000000000000000000000000000000000000000000000000000000815260040161034b90610eeb565b60405180910390fd5b50565b60008060009054906101000a900473ffffffffffffffffffffffffffffffffffffffff16905090565b73bc4ca0eda7647a8ab7c2061c2e118a18a936f13d81565b6103a06107fb565b600073ffffffffffffffffffffffffffffffffffffffff168173ffffffffffffffffffffffffffffffffffffffff16036104125760006040517f1e4fbdf70000000000000000000000000000000000000000000000000000000081526004016104099190610b0f565b60405180910390fd5b61041b81610882565b50565b600073ffffffffffffffffffffffffffffffffffffffff163373ffffffffffffffffffffffffffffffffffffffff160361048d576040517f08c379a000000000000000000000000000000000000000000000000000000000815260040161048490610f57565b60405180910390fd5b600360003373ffffffffffffffffffffffffffffffffffffffff1673ffffffffffffffffffffffffffffffffffffffff16815260200190815260200160002060009054906101000a900460ff161561051a576040517f08c379a000000000000000000000000000000000000000000000000000000000815260040161051190610fc3565b60405180910390fd5b600073bc4ca0eda7647a8ab7c2061c2e118a18a936f13d73ffffffffffffffffffffffffffffffffffffffff166370a08231336040518263ffffffff1660e01b81526004016105699190610b0f565b602060405180830381865afa158015610586573d6000803e3d6000fd5b505050506040513d601f19601f820116820180604052508101906105aa9190610dd0565b116105ea576040517f08c379a00000000000000000000000000000000000000000000000000000000081526004016105e19061102f565b60405180910390fd5b600033826040516020016105ff929190610e0c565b604051602081830303815290604052805190602001206040516020016106259190611070565b60405160208183030381529060405280519060200120905061064a8360015483610946565b610689576040517f08c379a0000000000000000000000000000000000000000000000000000000008152600401610680906110d7565b60405180910390fd5b6001600360003373ffffffffffffffffffffffffffffffffffffffff1673ffffffffffffffffffffffffffffffffffffffff16815260200190815260200160002060006101000a81548160ff021916908315150217905550600260009054906101000a900473ffffffffffffffffffffffffffffffffffffffff1673ffffffffffffffffffffffffffffffffffffffff1663a9059cbb33846040518363ffffffff1660e01b815260040161073e929190610e0c565b6020604051808303816000875af115801561075d573d6000803e3d6000fd5b505050506040513d601f19601f820116820180604052508101906107819190610e61565b503373ffffffffffffffffffffffffffffffffffffffff167f650e45f04ef8a0c267b2f78d983913f69ae3a353b2b32de5429307522be0ab55836040516107c891906110f7565b60405180910390a2505050565b600260009054906101000a900473ffffffffffffffffffffffffffffffffffffffff1681565b61080361095d565b73ffffffffffffffffffffffffffffffffffffffff16610821610357565b73ffffffffffffffffffffffffffffffffffffffff16146108805761084461095d565b6040517f118cdaa70000000000000000000000000000000000000000000000000000000081526004016108779190610b0f565b60405180910390fd5b565b60008060009054906101000a900473ffffffffffffffffffffffffffffffffffffffff169050816000806101000a81548173ffffffffffffffffffffffffffffffffffffffff021916908373ffffffffffffffffffffffffffffffffffffffff1602179055508173ffffffffffffffffffffffffffffffffffffffff168173ffffffffffffffffffffffffffffffffffffffff167f8be0079c531659141344cd1fd0a4f28419497f9722a3daafe3b4186f6b6457e060405160405180910390a35050565b6000826109538584610965565b1490509392505050565b600033905090565b60008082905060005b84518110156109aa5761099b8286838151811061098e5761098d611112565b5b60200260200101516109b5565b9150808060010191505061096e565b508091505092915050565b60008183106109cd576109c882846109e0565b6109d8565b6109d783836109e0565b5b905092915050565b600082600052816020526040600020905092915050565b6000819050919050565b610a0a816109f7565b82525050565b6000602082019050610a256000830184610a01565b92915050565b6000604051905090565b600080fd5b600080fd5b600073ffffffffffffffffffffffffffffffffffffffff82169050919050565b6000610a6a82610a3f565b9050919050565b610a7a81610a5f565b8114610a8557600080fd5b50565b600081359050610a9781610a71565b92915050565b600060208284031215610ab357610ab2610a35565b5b6000610ac184828501610a88565b91505092915050565b60008115159050919050565b610adf81610aca565b82525050565b6000602082019050610afa6000830184610ad6565b92915050565b610b0981610a5f565b82525050565b6000602082019050610b246000830184610b00565b92915050565b600080fd5b6000601f19601f8301169050919050565b7f4e487b7100000000000000000000000000000000000000000000000000000000600052604160045260246000fd5b610b7882610b2f565b810181811067ffffffffffffffff82111715610b9757610b96610b40565b5b80604052505050565b6000610baa610a2b565b9050610bb68282610b6f565b919050565b600067ffffffffffffffff821115610bd657610bd5610b40565b5b602082029050602081019050919050565b600080fd5b610bf5816109f7565b8114610c0057600080fd5b50565b600081359050610c1281610bec565b92915050565b6000610c2b610c2684610bbb565b610ba0565b90508083825260208201905060208402830185811115610c4e57610c4d610be7565b5b835b81811015610c775780610c638882610c03565b845260208401935050602081019050610c50565b5050509392505050565b600082601f830112610c9657610c95610b2a565b5b8135610ca6848260208601610c18565b91505092915050565b6000819050919050565b610cc281610caf565b8114610ccd57600080fd5b50565b600081359050610cdf81610cb9565b92915050565b60008060408385031215610cfc57610cfb610a35565b5b600083013567ffffffffffffffff811115610d1a57610d19610a3a565b5b610d2685828601610c81565b9250506020610d3785828601610cd0565b9150509250929050565b6000819050919050565b6000610d66610d61610d5c84610a3f565b610d41565b610a3f565b9050919050565b6000610d7882610d4b565b9050919050565b6000610d8a82610d6d565b9050919050565b610d9a81610d7f565b82525050565b6000602082019050610db56000830184610d91565b92915050565b600081519050610dca81610cb9565b92915050565b600060208284031215610de657610de5610a35565b5b6000610df484828501610dbb565b91505092915050565b610e0681610caf565b82525050565b6000604082019050610e216000830185610b00565b610e2e6020830184610dfd565b9392505050565b610e3e81610aca565b8114610e4957600080fd5b50565b600081519050610e5b81610e35565b92915050565b600060208284031215610e7757610e76610a35565b5b6000610e8584828501610e4c565b91505092915050565b600082825260208201905092915050565b7f546f6b656e207472616e73666572206661696c65640000000000000000000000600082015250565b6000610ed5601583610e8e565b9150610ee082610e9f565b602082019050919050565b60006020820190508181036000830152610f0481610ec8565b9050919050565b7f61646472657373205a65726f2064657465637465640000000000000000000000600082015250565b6000610f41601583610e8e565b9150610f4c82610f0b565b602082019050919050565b60006020820190508181036000830152610f7081610f34565b9050919050565b7f416464726573732068617320616c726561647920636c61696d65640000000000600082015250565b6000610fad601b83610e8e565b9150610fb882610f77565b602082019050919050565b60006020820190508181036000830152610fdc81610fa0565b9050919050565b7f4d757374206f776e20612042415943204e465400000000000000000000000000600082015250565b6000611019601383610e8e565b915061102482610fe3565b602082019050919050565b600060208201905081810360008301526110488161100c565b9050919050565b6000819050919050565b61106a611065826109f7565b61104f565b82525050565b600061107c8284611059565b60208201915081905092915050565b7f496e76616c69642070726f6f6600000000000000000000000000000000000000600082015250565b60006110c1600d83610e8e565b91506110cc8261108b565b602082019050919050565b600060208201905081810360008301526110f0816110b4565b9050919050565b600060208201905061110c6000830184610dfd565b92915050565b7f4e487b7100000000000000000000000000000000000000000000000000000000600052603260045260246000fdfea264697066735822122001cf4d9a3be9f1eba002612e49f9ab3ca02abe0f1bed82a59d4c359da8434b8d64736f6c63430008180033",
  "linkReferences": {},
  "deployedLinkReferences": {}
}